:020000040000fa
:080000000002040000000000f2
:020000040000fa
:100400004fc222000e7f24000e0188000000000071
:100410000c00070060c42e0001002000110007003e
:10042000000020000000e000020032000000020096
:10043000000000005ae30200000000000040da0063
:100440000000fe004440a90060d520000000e0004c
:100450000300320000002000a00188004440a800f2
:100460000000060091018800800078000000eb0089
:1004700015003700e280400032a0b4009101ba00bc
:10048000e280400032a0b4009102ba00e280400055
:1004900032a0b4000002eb00472bde00f507b200eb
:1004a000602ce10004003a000059eb008301e900f0
:1004b000fdff3e00040037006128e100010032002a
:1004c0000082eb00040007001101ba000200e00006
:1004d000e8ff3a00000006003159ba008301e90044
:1004e0000c0032002159ba008301e90008003200f3
:1004f0000400e00003003a00e280400032a0b400b3
:10050000f5ff370011d9ba008301e900faff3a007c
:100510008100e800e180400032a0b4000000060045
:10052000c429040001000000aee304000000000044
:10053000e2af0400000000004eae04000000000026
:100540006eae040000000000f6af040000000000e2
:1005500002b0040000000000dcae04000000000057
:10056000aaaf04000000000092c1040000000000d7
:10057000eebd040000000000febf0400000000000b
:1005800056bc040000000000dcba040000000000bb
:1005900038be04000000000018bf04000000000086
:1005a000a6bb040000000000e0c004000000000042
:1005b0004ac2040000000000180c04000100000002
:1005c000c60c040001000000ae0d04000100000094
:1005d000140e0400010000002e0e040001000000b3
:1005e000460e040001000000060f04000100000098
:1005f000fa370400010000001cc3040000000000e2
:100600005ec8040000000000b2c404000000000046
:1006100042c90400000000004c3904000100000041
:100620002c840400000000003200f800023b880027
:10063000910188000008bb000500fc005105200066
:10064000313b8800a10a2000313b880061e7a80007
:1006500000000000000000003200f9000000060069
:100660000400a100010037000400a0003200f800df
:100670009101880011002400013b8800f10f200047
:100680003208bb000400a700b20078000198bb004c
:100690008301e900faff3a00680151000400a70055
:1006a00068015100680050001208bb00e2ff3700eb
:1006b000f30f20003200f80091018800310024007f
:1006c000013b88000208bb000388bb00daff37004b
:1006d0003200f800003b8800d7ff3700020ab9005b
:1006e000001bb9000200b8008100420081004300f5
:1006f000000006000a00fa0080017800e20f5000b6
:1007000028003e00005d8100e10f5000080032002b
:10071000802320000000e0000500320004232000b8
:1007200025232000462320008001780004003700a4
:1007300004222000252220004622200083222000bf
:10074000144090000004e000040035008009eb0034
:10075000144090000074a0001042980015409000d2
:100760000028a30003003a00154090000024a000d8
:10077000904298008001eb00070037001540900080
:100780000008a300fdff320063c078000000fb00fa
:10079000000b78008301e800828f5100f7ff3a00d8
:1007a0000800370030002000b0bf9f00c3bf9f008b
:1007b000d1bf9f00e2bf9f006a80570000c0da00ef
:1007c0006fb99700020078000080fa000000060070
:1007d0006022b800060220000000d0008180d20014
:1007e0000482d2008582d2000000a00002025200e2
:1007f00083825a00030031000202420083824a00d1
:100800000000a1000603e900f3ff3a000000060023
:10081000889fbe008a9fbe008c1f78006f02070071
:100820007602330003866c006450e1002e00320033
:100830006420e100330032006150e1002f003200fb
:100840006120e1003100320085855500eb07b000e2
:1008500009002000080420000500370008044400b7
:1008600089844c000a0031000603430087834b0053
:100870000001530081815b00f8ff33000203be00da
:100880000800a0000804440089844c00f6ff3900e9
:10089000c639dd008301730001003200130020001f
:1008a0008904d1000884d3000998a3000500320010
:1008b0000800a7000300a0008904d1000884d30029
:1008c0008b05e8008904d1000884d3000001eb0007
:1008d0000281d2005902070001f0a1000cf0a7002c
:1008e00001f0a0004e0237006420e1005002320007
:1008f0000801be000200be00f7ff37006120e100e2
:100900004b0232006000b800f3ff37000000200007
:1009100001f82700f0ff3700f4ff2f006d023700c9
:100920000001be00860207000470a70003f0a100ca
:1009300003f8a30013003a006509b100100032006b
:10094000090035006928e100020035000100280097
:100950000000050000004000818048008502e90099
:10096000fcff3a0000000600f88f42000500350049
:100970008100d1000080d3008502e800fcff3a002e
:10098000000006008000eb0000000500889fbe000c
:100990008a9fbe00010578000100e00004003500d8
:1009a00008003c000000e000200032000500370095
:1009b00060001000e080180002003b0001f02c00f5
:1009c0001a0037000004be006011b8006b09200057
:1009d0000982cf00020039000882cf000441b00034
:1009e000694252000e00320008003b008281710013
:1009f000610164008904d1000884d3008b05e800fc
:100a00000442e800f9ff3a000500370008044400fa
:100a100089844c008b05e9000442e900fbff3a00a1
:100a2000060207000af0a70001f0a0004f05be0073
:100a30004f04be000000060003f0a200889fbe0025
:100a40008a9fbe008c1f7800e4010700eb01330091
:100a50006450e1004f0032006420e1005200320097
:100a600003826c0007003b000905d0000306d0009c
:100a7000820f54000c065d000200390002003200b3
:100a800089017800030678008582550004003d0046
:100a90000003fd008103fd008502ea008b85420012
:100aa000840f720002003b0060001000e08018001c
:100ab0006011b8000005eb007a28e1000a00390057
:100ac00006007800c75ddd00f707b200878075007b
:100ad0002d003700828171000a01780061056000f5
:100ae0008180d1000080d3008502e900f9ff3b003e
:100af000060440008784480002003b0060041400a4
:100b0000e0841c000988a300070032008a8171007c
:100b100082817100610164008904d1000884d300de
:100b20008b05e800170037000978a30013003a008e
:100b30000b00e000130034008b05e90008044400ba
:100b400089844c000a4474000978a3000d003a001f
:100b50000b00e000070034008b05e90008044400a6
:100b600089844c0001003a000b0020000978a300a2
:100b7000f7ff32000001eb000200370082817100b4
:100b80000a017800ad0107000cf0a70001f0a000f9
:100b9000a30137006420e10002003a00838f6c005b
:100ba000a30133000801be000200be009c01370013
:100bb000889fbe008a9fbe008c1f780087010700b7
:100bc0008e01330003866c006450e1002400320083
:100bd0006420e100270032006150e1002200320071
:100be0006120e100210032008b854200eb07b1005b
:100bf0000134b800003ab8000804420089844a0071
:100c0000013ab8000030b8008880400009014a006d
:100c100004003300000040008180480002014900c8
:100c20008b05e900c909dd00830170000100320075
:100c300013002000c814de004814dd004709de0060
:100c40001200b200c808de00088470007b010700b3
:100c500001f0a1000cf0a70001f0a0007001370026
:100c60006120e100720132000801be000200be00f6
:100c7000f7ff37006150e100fcff3a006c013700dc
:100c8000881f7800000478005001be004000be00bc
:100c90000400400085804800060149008781490022
:100ca000009cbe000294be000400e1000588e10043
:100cb0000690e1000798e10002003100680044005e
:100cc0001008e8004f04780000000600f487470091
:100cd000889fbe008a9fbe008c9fbe008e1f78003a
:100ce0000205be000004be00d4b79f00e5b79f0018
:100cf000f6b79f0087bf9f000000eb00c0b79f00c2
:100d0000b0b79f00a0b79f0090b79f0080b79f002b
:100d10000d042000bfb097004fb0970000014000c5
:100d20000000e0000f003d004f08de0000007100f1
:100d3000c0b79f009e00070001003d001200200088
:100d4000a100070001003d0012002000a6000700de
:100d5000b1000700b60007000f004000c8ff070001
:100d6000220037004f08de0000067100ccb79f005c
:100d70008f00070001003d001200200092000700d4
:100d800001003d001200200097000700a2000700ac
:100d90000fb297009fb297002fb39700bfb3970091
:100da000a90007000000520081805a0002015b0088
:100db00083815b0080b79f0091b79f00a2b79f001f
:100dc000b3b79f000007eb009f0007000020e10081
:100dd00001a8e10002b0e10003b8e1000100310028
:100de0001e0020000e005600c0b79f004fb29700b3
:100df0000400e00007003500100020000100200082
:100e00006011b80008047000898470000a05710040
:100e10008b8571008d06e900beff3a000400e000fa
:100e200003003d00820007000f00400094ff070010
:100e30004fa897000000e00004003a000fb49700ac
:100e40009fb497002fb59700bfb597009400070097
:100e50004f0778004f06be004f05be004f04be008e
:100e60004f01b10000000600881f78001800200024
:100e7000881f780095ff07008f87e9004f047800ee
:100e800000000600801feb0090ff07008f87e9003d
:100e900000000600889fbe008a9fbe008c1f78005d
:100ea0006e00070007003d0073000700e00f5b00c5
:100eb000e08f5b0007003d00320007000006eb00fa
:100ec000040037003400070002003d002a0007003c
:100ed0001c00200072000700e3ff07000203be00b1
:100ee0000002be000c00e0000100320022000700fa
:100ef0000400be000601be004f0678004f05be008c
:100f00004f04be0000000600889fbe008a9fbe00fe
:100f10008c1f78005100070005003d0056000700b7
:100f2000e00f5b00e08f5b0006003d00040037002f
:100f30001900070003003d006000b8006011b80010
:100f40001000070056000700ceff07000203be0096
:100f50000002be000c00e0000100320006000700a5
:100f60000400be000601be004f0678004f05be001b
:100f70004f04be00000006006000b8006011b80019
:100f80000000370004025000858258000603590013
:100f900087835900000006000006eb00e00f5200b6
:100fa000e08f5a00e00f5b00e08f5b00000006005e
:100fb0000180400090b79f000001eb008fb09700c8
:100fc0000100e000000006000200700090b79f00e2
:100fd0000180400080b79f000001eb00ffa8970050
:100fe0000100e000000006000200700080b79f00d2
:100ff000018040006faa9700cf20de000100700042
:10100000f0af9f0004024200250007004f18de00e9
:101010000002720000000600e4af9f0008044400d4
:1010200089844c000a054d008b854d0000000600a8
:101030003fb29700cfb297005fb39700efb397002e
:1010400000fe2f00000006003fb09700cfb09700d1
:101050005fb19700efb19700000006000205be00e7
:101060000004be00e00f5000e08f5800e00f590070
:10107000e08f5900000006006000b8006011b80061
:1010800008045000898458000a0559008b855900ce
:101090001c002000e00f5200e08f5a000000060004
:1010a0000800be000a01be0000000600889fbe00c6
:1010b0008a9fbe008c1f78000205be000004be009f
:1010c0000006eb00e00f5000e08f5800e00f5900e1
:1010d000e08f590007003d006000b8006011b800c3
:1010e00008045000898458000a0559008b8559006e
:1010f0001c002000e00f5200e08f5a00e00f5b0060
:10110000e08f5b0002003d000f0007000c00a20012
:101110000800be000a01be009e0007000203be00d8
:101120000002be000c00e0000100320006000700d3
:101130000400be000601be004f0678004f05be0049
:101140004f04be00000006006000b8006011b80047
:101150000402500085825800060359008783590015
:1011600000000600811f78000100e00002003d0041
:1011700060001000e08018000300e00002003d0065
:1011800060011100e0811900a40007004f00e00099
:1011900002003b0060001000e08018000000060024
:1011a000839f68000100e00002003d006000100025
:1011b000e08018000300e00002003d006001110023
:1011c000e081190082fd07004f00e00002003b00b3
:1011d00060001000e0801800000006000004be005f
:1011e000570007000003be000405be000200be0059
:1011f00053000700844f7500000006000200be0087
:101200006450e100050036006420e1000200360071
:101210000968a30001003a000800be000160a000b8
:101220004f0678004f05be004f04be0000000600c8
:10123000f0ff2f00f1ff2700f9ff370081002000a9
:10124000618055000b003d000b00200061fe2f0067
:101250000100e1001d003400828171006101640021
:101260008904d1000884d3000000e800faff3a00a6
:101270007100200061006400030070000200600043
:101280000900320061044400e0844c000988a50094
:10129000050032008b05e8006808e10002003a0012
:1012a0008904d1000884d300f20f20000258e10025
:1012b00005003d00c75ddd00f907b20089807500bb
:1012c00008007800000006000bf827008b0078006b
:1012d00000000500889fbe008a9fbe00841f780022
:1012e000beff07004f00780011003300f0ff2f0011
:1012f000838f6c0006003b00040565000a00a70010
:101300000800370009f0a600100020000800370090
:10131000820f5400838f5c0003003900100020000e
:1013200001003e000000200009f0a7000000ea00d4
:101330004f05be004f04be000000e00000000600a4
:10134000c70ade00f107b200f50fb2000800320054
:10135000e1cf4200020032000170a000240005002d
:10136000810f7000010032000408050044000500f0
:10137000810f700002003a00140005008502e900a8
:101380000000400081c04800fcff3b000170a0004d
:1013900024000500889fbe008a9fbe008c9fbe006f
:1013a0000404b8000506b8008904460060854e00b4
:1013b0000606b8000a054600e0854e000706b8009c
:1013c0008b054600040eb800890446000a854e00cd
:1013d000e0854d00050eb8000a0546008b854e00dd
:1013e000060eb8008b0546000416b8000a05460034
:1013f0008b854e000516b8008b054600041eb8000c
:101400008b0546000800be000a01be004f06be0064
:101410004f05be004f04be0000000600ecfc0700b4
:101420000400be00000006008001eb00020037004f
:10143000817178008301e800828f5100fcff3a003f
:1014400000000600889fbe000004be000000e0000f
:1014500003003a00185d81000800e000130032002c
:101460000800be00ec010700000444001804e0007e
:1014700004003a000000eb00105d890000047800d1
:101480000a0037000800be00f60107000000440013
:10149000105d89001004e000020032000058eb00eb
:1014a000010037000000eb00105d890008007800a3
:1014b0004f04be00000006008001780000017800a3
:1014c00031407800005978000004e000fcff3a0049
:1014d0000300780000000600800078003004e0007f
:1014e000feff3a00010050000000e9000000060085
:1014f0008001780000017800010037000201e80057
:101500001204e000fdff3a003140780000597800f5
:101510000004e000fcff3a00030078000000060031
:101520000001780000c2b300010037000201e800aa
:101530009240780080cf5000fcff3200e9cf50008d
:10154000faff3200d0c2b30080cf500003003a004f
:101550000201e80014c0b300050037000042eb00b0
:10156000b0c2b30080cf500001003a000201e80091
:101570008000eb0005fd2f00040037006a08b90069
:1015800000804100850040000201e8009201fb005c
:1015900005804100e90f5000f8ff36000404e00028
:1015a000010032008100ea0001007800000006001e
:1015b00010417800b141510003003a000000e800fa
:1015c0000204e000faff3a000300fb0000000600fe
:1015d000889fbe008a9fbe008000780000c2b300d2
:1015e00001003700890078008104780039447800d0
:1015f000804f5400fbff3200e94f5400f9ff3200e6
:10160000d0c2b300804f540004003a00194478005f
:101610008184e8001ac0b300060037000045eb00e3
:10162000b0c2b300804f540002003a001944780061
:101630008184e8006022b8000a003700a200200080
:10164000030020000400be0024fc07000b414400fe
:101650000281fb000300200000024100818249005a
:10166000394478000880fb000bfd2f000b00400080
:10167000e90f5000f1ff36000a04e00002003200da
:1016800060021200e0821a000400be004f05be0096
:101690004f04be000000060001002000305a8900ff
:1016a000415a890011c0b30040b4220001487800bb
:1016b0000000060042b422001204e00006003a00d6
:1016c0001000200001002000305a8900415a890092
:1016d00010c0b30000497800d2e62400631c240047
:1016e000305a8100415a8100fcfb07000001be0016
:1016f0009003230001002000020040008380480086
:10170000305a8900415a89004088de00cf80de00cf
:1017100000f0a100000006000400fa00e0bf9f00f6
:10172000e4815700812978000002eb000f003700a8
:101730006fb89700904078007fb89700104078000d
:101740000402e80080cf5000040032008180fb00da
:101750000080fb0000805000070037006fb8970042
:101760000000e800e0bf9f009309e800820f5200ec
:10177000efff3a000000eb000080fa0000000600d6
:101780008001eb000200370061f079008301e8007e
:10179000828f5100fcff3a000000060010417800e3
:1017a000814f5100040032000000e8000204e00014
:1017b000faff3a000000eb0000000600889fbe0020
:1017c0000004be000d0037000900780042ff07004a
:1017d000000178000800be00350107000000e000ad
:1017e00002003a0008007800090037009900fb0069
:1017f0000800e800e9ff0700000478000800e000a6
:10180000020032001804e000efff3a000000eb0095
:101810004f04be00000006000002780082427800fb
:10182000034878008100fb00a2002000110009009d
:101830008200d8008000fd000043b00070fa9f00d5
:10184000014078000104e000030032000043b000d2
:1018500060fa9f000000060065fa9f000000060085
:1018600080007800630060000f003a00420620000c
:10187000811f7800110009008280d80001007800e3
:10188000cf0078000000e00008003a00c0122000fd
:101890000100400002192000110009000280d80058
:1018a0000100e00001003200d0160500e01605003e
:1018b000889fbe008a1f78008c9fbe001004be0067
:1018c000c2032000030020000800be0025fe070020
:1018d000b04b8900c2032000030020000800be00b6
:1018e0002ffe07000004be00c203200003002000fa
:1018f0001cfe0700c04b8900c2032000030020002b
:101900000800be0026fe07000006be00820120007f
:101910000300200013fe0700d04b89008201200045
:10192000030020000c00be001dfe0700e04b8900f4
:101930006400400072002000110009000200d8007d
:1019400001017800124c8900600420000400370077
:1019500000005500e04b8900009822001000e800cc
:10196000004c8900ea4b8100004c8100bcff07005d
:10197000800f5500f6ff3d006200600001f02f006f
:1019800001046600000474002a4c8900e0972200dc
:101990000008eb008002780024af22000800370026
:1019a00002805100e04b89001500e800f04b8900ef
:1019b0000880fb000000d10008846000000474006f
:1019c000e34b8100f04b81006440780008407000d8
:1019d0000081fb004810dd00f80fb2000004740025
:1019e000828f5100eeff3d000300e800e04b8900cc
:1019f000609722004f06be004f0578004f04be00de
:101a0000000006000400fa00224d8100c1032000fe
:101a10000191b90030021100a0821900e4bf9f00bb
:101a2000f5bf9f0064805700a1ff07000080fa0007
:101a300000000600889fbe008a9fbe0080047800d8
:101a4000600090006300b900c28c220000014100d8
:101a50008b982200924d780090982200924090003e
:101a600001487800a09822002241900002487800a6
:101a70000ac2b300b09822000a48780049009000da
:101a80006300b900228e220000014100c0982200ac
:101a900012487800d09822009240900001487800c7
:101aa000e09822002241900002487800f09822003d
:101ab0000a487800b90090008a4178000a4178000d
:101ac0002099220054ff0700a9009000a3c3b3008f
:101ad00002c3b300509922004fff07009900900005
:101ae000a3c3b30002c3b300809922004aff0700da
:101af000990078008a41780002c3b300b0992200af
:101b000045ff0700d9009000480620001100090099
:101b10008800d8008000fd00f3c040008041eb0049
:101b20000a417800e09922003bff0700590090002d
:101b3000110009000800d800a3c0b30002c3b3001d
:101b4000009a220034ff07000b0078004f05be000a
:101b50004f04be0000000600aaff0700b5ff3700d3
:101b60000003780080027800020278008001eb0018
:101b7000080037000402e90063c07800805a78004a
:101b80008301e8000004e00002003a008000eb005e
:101b900006003700828f5100f6ff3a00fbff370046
:101ba0000040eb0080f07a008100e800848f500054
:101bb000fbff3a0006007800000006000c00fa0067
:101bc000889fbe0000047800cfb09700f0ff270088
:101bd000d0bf9f008004eb0099bf9f0088bf9f008b
:101be000a8bf9f00200c2000b0bf9f007881570045
:101bf000708057003f0007000fb897000948780031
:101c00000fb8970008045000080078004f04be0089
:101c10000080fa0000000600889fbe008a1f78003e
:101c200000057800810478000004eb000100370013
:101c30000804e80068407d000004e0000500320070
:101c40008000fb0009007800d4fe07000000e000df
:101c5000f7ff3a00080078004f0578004f04be00f7
:101c600000000600889fbe008a1f780000057800eb
:101c7000810478000004eb00010037000804e8004c
:101c800068407d000004e000050032008000fb0099
:101c900009007800c1fe07000000e000f7ff3200f5
:101ca000080078004f0578004f04be0000000600d1
:101cb000810178000002eb000b003700e44078005f
:101cc0000104e000030032000402e80093cf50005a
:101cd000040032008180fb001380fb000080500074
:101ce000000006008301e800820f5200f3ff3a0073
:101cf00000000500fe874700889fbe008a9fbe0047
:101d00008c9fbe008e1f7800f0b79f0001077800ff
:101d100082bf9f000000eb00a0b79f009f0237002a
:101d20008006eb0050c2b30080cf500009003200a3
:101d30000100fb00ffb09700a3020700e10f400085
:101d400096023200afb097008100e800a1b79f0073
:101d5000920237009e407800d0c2b30080cf50007e
:101d60000c00320007003c006d40500080cf500056
:101d70000a0032006b40400080cf50000e003a0055
:101d80000800370000c3b30080cf50000a003a00bb
:101d9000060037000d30a000050037000d00a00040
:101da000030037000d10a000010037000d20a00037
:101db0000e07e800e7ff37000d18a300010032000e
:101dc0000d00a1000d38a300010032000d20a1007c
:101dd0000100fb0002fd2f0002004000e90f50004f
:101de0000e003e000002eb00c4b79f0082017800a5
:101df000cfb297006a28b9001e01fb000001410024
:101e000003014100c2b79f005e00fb0003004000d9
:101e1000e90f50000b003e00f5ff37000006eb0015
:101e2000ccb79f00a0c2b30080cf500005003a009d
:101e30000fb89700c000780080bf9f00c1b79f0017
:101e40000e07e8000001eb00b2b79f00e0c2b3004c
:101e50009e4f100018003a000de0a0008e00e80030
:101e600064405000914f10000200320001077800da
:101e70000c0037000fba9700c402780084bf9f009f
:101e8000b5b79f000e87e8000b0037003fb69700fc
:101e90006a60b9000000410003004000b0b79f0035
:101ea0000e07e8001e01fb0003fd2f0003004100a8
:101eb000e90f5000f5ff3600be407800e1d79f00e3
:101ec000c0c6b30080cf5000220032000f003c009b
:101ed0006940500080cf50007700320004003c0081
:101ee0000104e000310232006b4050000f00370067
:101ef00040c6b30080cf50009300320065404000e0
:101f000080cf50008b003a008f00370030c7b300fd
:101f100080cf50001a00320007003c00644050009f
:101f200080cf5000110032000040e80080cf500008
:101f300080003a000f00370050c7b30080cf500038
:101f4000800032006340400080cf500079003a00aa
:101f500009003700000028000d48a30001003a00e6
:101f60000001200080867600d3ff37000d60a000be
:101f7000750037000d50a0000d70a00072003700f2
:101f80008fb897004100780081bf9f00000478005f
:101f90000000e00001003a00689a22008004eb0093
:101fa000010037008104e8008900780008804400bf
:101fb0001004e000fbff3a003fb197000200e00090
:101fc00003003200890f51000100310082047800c3
:101fd0000002eb00e4af9f00cfb29700898f520060
:101fe0000200360009805200e0af9f004368de0027
:101ff000e10660001b003a000d067800090037007a
:10200000ffb0970000022000ef010700e10f400041
:10201000030032002fb097000000e800a0b79f0037
:102020000c06e800efa89700810f5600f4ff3a0075
:102030000081eb00e2af9f000a00370088007800c3
:102040003100fb0001047800ffb09700de010700bb
:10205000e10f4000030032002fb297000402e800b5
:10206000a4b79f000900e90080047800e10f400058
:10207000f2ff3a000006eb000d00e0000a003a0013
:10208000c6013700ffb0970000022000ce01070014
:10209000e10f400003003200afb297008502e80074
:1020a000a5b79f000c06e8006fa89700800f5600a8
:1020b000f4ff3a00b90137008fb89700410078006b
:1020c00081bf9f00cf80de0001017800820178008f
:1020d0000205be000004be000203be000002be00f6
:1020e0004822de00482edd0004027600e4d79f007f
:1020f0000d48a3000a0032000404e000080032008a
:10210000e14f42000600320071fd2f0001804700c0
:102110000448780018409800290020000200370089
:10212000f0d79f001900200072fd2f0002844700a5
:10213000a1ff370064fd2f00048447001900200030
:102140009dff37000d0cb3000d007800000cb200ad
:1021500028003a000d00e00005003d008fba97000e
:102160004505be004504be0085bf9f001400370032
:102170000d48a3000b0032000fbe97004c00be00bc
:102180008cbf9f004f89de00cf91de000002be00b1
:1021900002037800820378000605be000404be0036
:1021a000070037008fb897004100780081bf9f007b
:1021b00000047800cfc4de00090578008a057800a5
:1021c000e00f5400e08f5c00e00f5d00e08f5d00e9
:1021d0001f003d003d00b3006000b8006011b80072
:1021e00008045000898458000a0559008b8559005d
:1021f000170037000d00e00005003d000fb9970003
:102200004205be004204be0082bf9f00100037009e
:102210000d48a300070032000fba97004400be002b
:1022200084bf9f006011b8000205be000004be001c
:10223000070037008fba97004500780085bf9f00e0
:1022400000047800090020000a0020000b00200094
:102250003fb697000c00e00007003a00e00f540082
:10226000e08f5c00e00f5d00e08f5d0002003a004f
:1022700010002000b0b79f008d007800010cb20064
:10228000e1b79f0000042000808f50003000320032
:1022900003003c000100e00008003200400037006d
:1022a000000820006fb19700800f51001400320029
:1022b000000c2000800f510039003a0014c0b30018
:1022c000e56c22000b0037000400fb004300dd003a
:1022d000050040005001be004000be000040e1008b
:1022e00001c8e10002d0e10003d8e1002b00390071
:1022f0000442e800f44f5200f3ff3a002700370091
:1023000000012000010020006011b80014c0b300db
:102310000040e10001c8e10002d0e10003d8e10083
:102320001e003900450020000000d0008180d2004e
:102330000281d2008381d2008502e900faff3a00cf
:102340000442e800f04f5200f1ff3a00130037005a
:1023500080002000010020006011b80014c0b3000c
:102360000040e10001c8e10002d0e10003d8e10033
:102370000a0039003c0020000000d0008180d2001b
:102380000281d2008381d2000c06e900faff3a00f4
:102390000442e800f54f5200f1ff3a00e4d79f00f5
:1023a000efd097000100fb003fb19700820f500073
:1023b00002003d00e2d79f00040037003fb29700c3
:1023c000800f520001003d00b0b79f00cfb29700d0
:1023d0000500e00004003200638066000200320065
:1023e0008502e900c5b79f000de8a3000b0032008d
:1023f0004fb697003fb09700800f560003003c0097
:102400008000eb00c1b79f00040037004fb1970078
:102410003fb2970004015100c2b79f00efd297006e
:102420000500fb000006eb00dcaf9f00cfb097007b
:10243000808f50000200340000805000d0af9f0019
:102440000d28a30037003200e18066000d18a300bc
:102450000c003200d00220000100e00001003a0030
:102460000080e900ffb09700d7000700e10f4000af
:102470000e0032002fb197000201e800a2b79f00c2
:102480000a0037000100e00008003200ffb09700aa
:1024900000022000cc000700e10f400003003200e2
:1024a0002fb297000402e800a4b79f00dfaa9700ac
:1024b0000500e0000f0032000006eb00ffb09700bf
:1024c00000032000c0000700e10f400003003200bd
:1024d0002fb097000000e800a0b79f000c06e800ae
:1024e000dfa89700810f5600f4ff3a000001eb00cf
:1024f000d2af9f003fb29700c320dd00606c220086
:102500008080400091b79f004220dd0064005000b1
:1025100080b79f006320b900f0af9f0063065000b2
:1025200084003700dfaa97000500e00011003200a8
:10253000688066000f003a0000067800ffb0970040
:1025400000022000a0000700e10f4000030032005d
:102550002fb097000000e800a0b79f000c06e8002d
:10256000dfa89700810f5600f4ff3a000001eb004e
:10257000d2af9f00e18066000d18a3000c0032006e
:10258000d00220000100e00001003a000080e900d4
:10259000ffb097008c000700e10f4000d5ff32002c
:1025a0002fb297000402e800a4b79f00d1ff3700c4
:1025b0000100e000cfff3200ffb0970000022000d2
:1025c00081000700e10f4000caff3200afb2970060
:1025d0008502e800a5b79f00c6ff37000004200071
:1025e000efb09700808f50003100320003003c00b4
:1025f0000100e000080032003e0037000008200023
:102600006fb19700800f510011003200000c2000c4
:10261000800f510037003a001fb097003002be0013
:102620002003be000800be000a01be000efa07002b
:10263000a4002000050020006033b80011fa070054
:1026400004c3b30004424000e4d79f0029003700d0
:10265000d59a2200d5b79f000d58a30002003a007a
:10266000e09b2200d0b79f0014002000050020004e
:102670006033b8008fb097008100e9000500330097
:102680000402d0008582d2000683d2008783d20064
:10269000f9ff37000800be000a01be00f2f907008a
:1026a0006f0060005fb19700624078001000370053
:1026b00014002000050020006033b8000c007800f2
:1026c0000000e900050033000402d0008582d2003a
:1026d0000683d2008783d200f9ff37000800be00ce
:1026e0000a01be00e0f90700674060000043b00047
:1026f000e0d79f00efd097000100fb00ffb09700ec
:1027000031000700e10f4000030032002fb19700b5
:102710000201e800a2b79f001fb2970068025200b2
:1027200094b79f008fb29700e482520085b79f0054
:1027300063065600d0ff2f003fb197000090b9000c
:102740007faa97000000420063005000800f5600ef
:10275000a2ff3a000d38a30010003200dfaa970054
:102760000500e0000d0034000006eb00ffb097000c
:102770000002200014000700e10f400003003200b7
:102780002fb097000000e800a0b79f000c06e800fb
:10279000dfa89700810f5600f4ff3a00be40780092
:1027a000e1d79f000104e0005dfd3a002fb09700e3
:1027b0004f0778004f06be004f05be004f04be0015
:1027c000ef01b10000000600889fbe000001780004
:1027d00001047800b10090000118a3003d00320010
:1027e0000198a30003003a00180090000000e000e8
:1027f00038003a000190a00031049800820478006b
:10280000f90fb200180090000000e00002003a004a
:1028100028009000000c7800ea8f540006003a006f
:10282000380090000078a30003003a008800780088
:10283000d0002000e4ff07009800900058009000ae
:10284000808f50000b0032000100e8001004980057
:102850001800780009587800000c780011c0b30007
:10286000e0b4220001487800ea8f540006003200ec
:102870001900370088007800094078001900070027
:102880008004780014003700380090000088a3000e
:102890001100320018019000a8009000480090003c
:1028a00094f7070098009000810f50000400320058
:1028b000380090000003b300300498008084eb00df
:1028c0000000eb001004980028009000000c780035
:1028d000010037008084eb00090078004f04be003f
:1028e000000006000200fa00889fbe00a0ff9f00c3
:1028f00001047800b1009000810478000904b2005e
:10290000020032000000fb00360037000118a3006f
:1029100005003a000103b30031049800190498003f
:102920000080eb002f003700580090000000e0000e
:1029300006003a004800900012002000e680570090
:102940006cf7070019049800240037002800900055
:102950000000e00008003a00a0b422002004980023
:10296000000c78002000200050049800100498000b
:102970000130a0003104980018019000a8009000d8
:10298000480090005bf7070028009000000c7800da
:102990000080eb001004980018007800aff8970052
:1029a00001587800000c78002ff89700ea4f50008b
:1029b0000a003a00380090000088a30007003200a7
:1029c00018019000a80090004800900049f7070007
:1029d00019049800a8009000010c7800aff8970047
:1029e0000100fb004f04be000080fa00000006005a
:020000040000fa
:020000040005f5
:0457f800eefa0000c5
:020000040000fa
:020000040005f5
:0457fc007f3e0000ec
:020000040000fa
:10000800302d01005a2d0100842d0100ae2d010074
:10001800d82d0100302d0100302d0100302d0100b8
:10002800302d0100302d0100302d0100c0330100ba
:10003800302d0100302d0100302d0100302d010040
:10004800302d0100302d0100302d0100fe2c010063
:10005800302d01007c460000302d0100302d0100bc
:10006800302d0100302d0100302d0100302d010010
:10007800ae3e0100302d0100302d0100302d010071
:10008800302d0100302d0100302d0100302d0100f0
:100098007c320100022e01001e2d0100302d0100ce
:1000a800302d0100302d0100302d0100302d0100d0
:1000b800302d0100302d0100302d0100302d0100c0
:1000c800302d0100302d0100302d0100302d0100b0
:1000d800302d0100302d0100302d0100302d0100a0
:1000e800302d0100302d0100302d0100302d010090
:1000f800302d01002a2e0100522e0100302d010062
:10010800302d0100302d0100302d0100302d01006f
:10011800302d0100302d0100cc190100302d0100d7
:10012800302d0100302d0100302d0100302d01004f
:10013800302d0100302d0100302d0100302d01003f
:10014800302d0100302d0100302d0100302d01002f
:10015800302d0100302d0100302d0100302d01001f
:10016800302d0100302d0100242d0100302d01001b
:10017800302d0100302d0100302d0100302d0100ff
:100188002a2d0100302d0100302d0100302d0100f5
:10019800302d0100302d0100302d0100302d0100df
:1001a800302d0100302d0100302d0100302d0100cf
:1001b800302d0100302d0100302d0100302d0100bf
:1001c800302d0100302d0100302d0100302d0100af
:1001d800302d0100302d0100302d0100302d01009f
:1001e800302d0100302d0100302d0100302d01008f
:0801f800302d0100302d010043
:020000040000fa
:10020800302d01005a2d0100842d0100ae2d010072
:10021800d82d0100302d0100302d0100302d0100b6
:10022800302d0100302d0100302d0100c0330100b8
:10023800302d0100302d0100302d0100302d01003e
:10024800302d0100302d0100302d0100fe2c010061
:10025800302d01007c460000302d0100302d0100ba
:10026800302d0100302d0100302d0100302d01000e
:10027800ae3e0100302d0100302d0100302d01006f
:10028800302d0100302d0100302d0100302d0100ee
:100298007c320100022e01001e2d0100302d0100cc
:1002a800302d0100302d0100302d0100302d0100ce
:1002b800302d0100302d0100302d0100302d0100be
:1002c800302d0100302d0100302d0100302d0100ae
:1002d800302d0100302d0100302d0100302d01009e
:1002e800302d0100302d0100302d0100302d01008e
:1002f800302d01002a2e0100522e0100302d010060
:10030800302d0100302d0100302d0100302d01006d
:10031800302d0100302d0100cc190100302d0100d5
:10032800302d0100302d0100302d0100302d01004d
:10033800302d0100302d0100302d0100302d01003d
:10034800302d0100302d0100302d0100302d01002d
:10035800302d0100302d0100302d0100302d01001d
:10036800302d0100302d0100242d0100302d010019
:10037800302d0100302d0100302d0100302d0100fd
:100388002a2d0100302d0100302d0100302d0100f3
:10039800302d0100302d0100302d0100302d0100dd
:1003a800302d0100302d0100302d0100302d0100cd
:1003b800302d0100302d0100302d0100302d0100bd
:1003c800302d0100302d0100302d0100302d0100ad
:1003d800302d0100302d0100302d0100302d01009d
:1003e800302d0100302d0100302d0100302d01008d
:0803f800302d0100302d010041
:020000040000fa
:1029f0004e5500004c4c000000570000465f0000a0
:102a00004a4f0000494e00005f4600004149000067
:102a10004c5500005245000000570000465f000082
:102a20004155000054480000454e00005449000044
:102a300043410000544900004f4e00005f46000033
:102a4000414900004c55000052450000005700006d
:102a5000465f000041530000534f0000434900000f
:102a600041540000494f00004e5f00004641000005
:102a7000494c000055520000450000005746000038
:102a80005f570000455000005f480000414e0000c5
:102a900044530000484100004b4500005f460000e1
:102aa000414900004c55000052450000005700000d
:102ab000465f0000505300004b5f000043410000a0
:102ac0004c430000554c000041540000494f0000a9
:102ad0004e5f000046410000494c00005552000086
:102ae00045000000574600005f500000534b0000b7
:102af0005f480000414e0000445300004841000080
:102b00004b4500005f460000414900004c55000065
:102b10005245000000570000465f0000414400009d
:102b2000484f0000435f00004a4f0000494e00003c
:102b30005f460000414900004c550000524500002e
:102b400000570000465f0000534500004355000059
:102b500052490000545900005f4d000049530000e5
:102b60004d41000054430000485f00004641000012
:102b7000494c000055520000450000005746000037
:102b80005f4e00004f5f00005355000049540000a5
:102b9000414200004c4500005f410000505f0000d2
:102ba000464f0000554e0000445f000046410000c3
:102bb000494c0000555200004500000057460000f7
:102bc0005f52000045540000525900005f4600006b
:102bd0004f52000045560000455200005f4e000075
:102be0004f5400005f53000055500000504f00004c
:102bf00052540000454400005f4600004149000077
:102c00004c5500005245000000570000465f000090
:102c10004c4900004e4b00005f4c00004f53000039
:102c20005400000000570000465f000052530000af
:102c30004e5f00004d49000058450000445f000011
:102c40004d4f0000444500005f4e00004f5400000f
:102c50005f53000055500000504f000052540000d8
:102c60004544000000570000465f00005245000048
:102c7000435600005f4400004541000055540000e9
:102c800048000000574600005f5200004543000026
:102c9000565f0000444900005341000053530000b8
:102ca0004f43000000570000465f000057500000ef
:102cb000535f000046410000494c0000555200009f
:102cc00045000000574600005f50000032500000f1
:102cd0005f460000414900004c550000524500008d
:102ce00000570000465f00004c4900004e4b0000ba
:102cf0005f4400004f5700004e0000004173000089
:102d0000736f00006369000061740000696f000068
:102d10006e20000046610000696c000075720000c2
:102d200065000000574600005f420000454100007a
:102d3000434f00004e5f0000544900004d45000025
:102d40004f55000054000000574600005f4400004b
:102d50004541000055540000485f00005245000006
:102d6000434500004956000045440000005700005c
:102d7000465f0000444900005341000053530000e7
:102d80004f43000049410000544500005f520000dd
:102d9000454300004549000056450000440000003e
:102da000574600005f5400004b490000505f000090
:102db0004d490000435f000046410000494c0000bf
:102dc00055520000450000004d610000696e000092
:102dd000446500006d6f00002e6300000057000086
:102de000465f0000436f00006e66000069670000e8
:102df0002e63000000570000465f00004569000098
:102e00006e7400002e63000000570000465f000053
:102e100053700000692e0000630000005746000058
:102e20004d610000632e0000630000005746000063
:102e300050610000726100006d4d0000736700007a
:102e40002e63000000570000464300006f6e000034
:102e50006e65000063740000696f00006e50000032
:102e6000726f0000666900006c6500002e63000050
:102e700000570000464300006f6e00006e650000c2
:102e800063740000696f00006e4100006c67000011
:102e90006f72000069740000686d00002e6300000e
:102ea00000570000464300006f6e00006e65000092
:102eb00063740000696f00006e4d0000616e0000d9
:102ec00061670000657200002e630000005700007b
:102ed00046440000726900007665000072430000fd
:102ee0006f6d00002e63000000570000464900008f
:102ef0006e690000742e0000630000005746000059
:102f000044720000697600006572000052610000a2
:102f1000772e000063000000574600004d67000058
:102f20006d7400004d730000672e00006300000008
:102f3000574600004d6700006d7400004d7300009f
:102f40006754000065730000742e000063000000e9
:102f50005746000054780000506f0000776500006d
:102f6000722e00006300000057460000506f000002
:102f7000776500007253000061760000652e000046
:102f8000630000005746000045760000656e0000b3
:102f900074480000616e0000646c000065720000ff
:102fa0002e630000005700004653000063610000dc
:102fb0006e2e0000630000005746000044610000d0
:102fc000746100005478000052780000004900004d
:102fd000706500007266000041700000702e0000f5
:102fe0006300000057460000486f00007374000043
:102ff0004272000069640000676500002e630000f3
:1030000000570000465f0000697000006572000014
:10301000664300006c690000656e0000742e0000bd
:1030200063000000574600005f6900007065000003
:103030007266000053650000727600006572000041
:103040002e63000000570000465f0000697000001a
:1030500065720000664300006f6d00006d6f000038
:103060006e2e00006300000045760000656e0000d3
:10307000743a0000204300006f6e00006e6500008f
:1030800063740000696f00006e200000546500004a
:103090006d7000006f72000061720000696c0000ca
:1030a000792000004c6f000073740000202d000098
:1030b0002d20000065760000656e00007449000058
:1030c0006e6600006f2000003d200000002500001b
:1030d000642c0000200000000d0a000000450000e4
:1030e000766500006e7400003a200000436f000017
:1030f0006e6e000065630000746900006f6e000072
:1031000020460000616900006c650000642000003a
:10311000202d00002d20000065760000656e000067
:10312000744900006e6600006f2000003d20000022
:1031300000450000766500006e7400003a20000033
:10314000436f00006e6e000065630000746900004c
:103150006f6e000020500000657200006d6100007d
:103160006e6500006e7400006c790000204c000059
:103170006f730000742000002d20000065760000b1
:10318000656e0000744900006e6600006f2000004c
:103190003d200000000d00000a57000069460000b5
:1031a00069200000636f00006e6e00006563000020
:1031b000746900006f6e00002073000065740000e9
:1031c000746900006e670000733a00000d0a000089
:1031d0000053000053490000443a00002020000042
:1031e00020200000202000002020000020200000df
:1031f00020200000002800006e6f00006e650000b7
:10320000290000004e650000747700006f72000016
:103210006b20000054790000706500003a20000027
:10322000202000002000000041640000486f0000e2
:10323000630d00000a0000005769000046690000a5
:10324000204400006972000065630000740d0000f6
:103250000a000000536f0000667400002041000067
:10326000636300006573000073200000506f00006e
:10327000696e0000740d00000a000000496e000035
:1032800066720000617300007472000075630000d4
:10329000747500007265000020280000757300003e
:1032a000696e0000672000005750000053200000a6
:1032b0005075000073680000204200007574000023
:1032c000746f00006e2900000d0a00000049000024
:1032d0006e66000072610000737400007275000079
:1032e00063740000757200006520000028750000fe
:1032f000736900006e670000205700005053000003
:1033000020500000696e0000290d00000a00000036
:10331000496e000066720000617300007472000064
:103320007563000074750000726500000d0a0000ee
:1033300000430000686100006e6e0000656c0000d4
:10334000204c000069730000743a00002020000047
:103350002020000000250000640000002c20000058
:10336000004100006c6c00002063000068610000f8
:103370006e6e0000656c000073200000696e000036
:10338000206400006f6d0000616900006e0d000098
:103390000a0000004d410000433a000020200000d8
:1033a000202000002020000020200000202000001d
:1033b00020200000200000002530000032580000ce
:1033c0002000000053650000637500007269000072
:1033d000747900003a200000202000002020000026
:1033e00020200000200000004f700000656e0000eb
:1033f0000d0a000000570000504100002077000037
:1034000069740000682000006b650000790d000001
:103410000a000000575000004132000020770000f1
:1034200069740000682000006b650000790d0000e1
:103430000a0000005750000041200000776900009a
:1034400074680000207000006173000073200000a9
:103450007068000072610000736500000d0a0000d2
:103460000057000050410000322000007769000042
:103470007468000020700000617300007320000079
:103480007068000072610000736500000d0a0000a2
:1034900000570000504100002077000069740000d0
:1034a000682000006b650000792c0000206100009e
:1034b000757400006f2d0000736500006c650000de
:1034c000637400000d0a0000005700005041000026
:1034d000207700006974000068200000706100001f
:1034e00073730000207000006872000061730000b8
:1034f000652c000020610000757400006f2d000035
:10350000736500006c650000637400000d0a000024
:103510000057000050530000207000007573000039
:103520006820000062750000747400006f6e000077
:10353000206d000065740000686f0000640d0000dd
:103540000a000000575000005320000050490000be
:103550004e2000006d650000746800006f6400007c
:103560000d0a00000057000050410000322000000a
:10357000456e000074650000727000007269000002
:10358000736500000d0a0000005700004550000060
:10359000343000002c20000000570000455000008f
:1035a00031300000342c000020000000574500009e
:1035b000502000004b65000079200000496e00009b
:1035c00064650000783a0000202000002000000020
:1035d000256400000d0a000000570000462000008e
:1035e000415300005345000052540000494f000071
:1035f0004e200000617400002000000025730000d0
:1036000020200000004c0000696e000065200000d2
:103610004e7500006d62000065720000203d0000e4
:10362000200000002c280000290000002e000000cf
:10363000256c0000690000007061000073760000d6
:103640000d0a0000000d00000a0000005365000094
:10365000727600006572000020490000503a0000b8
:10366000000d00000a53000065720000766500003e
:1036700072200000706f0000727400003a000000b9
:103680005365000072760000657200002073000030
:103690006561000072630000686900006e670000e9
:1036a0002e2e00002e000000465400005043000063
:1036b0006f6e00006e650000637400003a20000029
:1036c00053450000525600004552000020460000bd
:1036d0004f5500004e4400000d0a0000003200006b
:1036e000323000000046000054500000436f0000dc
:1036f0006e6e000065630000743a00002053000005
:10370000455200005645000052200000414e000086
:103710005357000045520000454400000d0a0000c8
:103720000055000053450000522000000033000007
:1037300033310000005500005345000052200000c6
:103740004f4b00000d0a00000050000041530000e4
:10375000532000000032000033300000003500002c
:103760003330000000500000415300005357000068
:103770004f520000442000004f4b00000d0a000093
:1037800000530000495a00004520000000350000a9
:1037900035300000003200003133000000460000e8
:1037a00054500000466900006c6500005369000039
:1037b0007a6500003a000000535400004f520000a8
:1037c0002000000041500000504500002000000093
:1037d00031350000300000003232000036000000b9
:1037e00052450000545200002000000053740000b5
:1037f00072650000616d00004f700000656e000092
:103800003a20000052450000545200000d0a00000a
:103810000053000074720000656100006d4f0000ed
:10382000706500006e3a000020530000544f000005
:10383000520d00000a000000537400007265000081
:10384000616d00004f700000656e00003a200000be
:1038500041500000504500000d0a000000310000fa
:103860003235000000460000545000005374000040
:1038700072650000616d00005772000069740000fd
:10388000653a000020740000696d0000656f00005b
:10389000757400002062000079200000736500004c
:1038a00072760000657200002064000069730000f9
:1038b000636f00006e6e00006563000074690000b5
:1038c0006f6e00000d0a000000460000545000001a
:1038d0005374000072650000616d000057720000b3
:1038e00069740000653a000020740000696d0000f2
:1038f000656f0000757400000d0a000000460000ae
:10390000545000005374000072650000616d0000a7
:1039100052650000616400003a200000454f00003d
:1039200046200000726500006163000068650000c9
:10393000640d00000a0000004654000050530000cf
:1039400074720000656100006d5200006561000046
:10395000643a000020740000696d0000656f00008b
:10396000757400002062000079200000736500007b
:103970007276000065720000206400006973000028
:10398000636f00006e6e00006563000074690000e4
:103990006f6e00000d0a0000004600005450000049
:1039a0005374000072650000616d000052650000f4
:1039b000616400003a200000746900006d65000039
:1039c0006f750000740d00000a000000070c000075
:1039d00011160000070c000011160000070c000073
:1039e00011160000070c0000111600000509000068
:1039f0000e140000050900000e1400000509000067
:103a00000e140000050900000e140000040b000055
:103a100010170000040b000010170000040b00003a
:103a200010170000040b000010170000060a000029
:103a30000f150000060a00000f150000060a00001e
:103a40000f150000060a00000f15000078a4000002
:103a50006ad7000056b70000c7e80000db7000001e
:103a600020240000eece0000bdc10000af0f00001a
:103a70007cf500002ac600008747000013460000be
:103a800030a800000195000046fd0000d898000015
:103a900080690000aff70000448b0000b15b0000bc
:103aa000ffff0000bed700005c890000221100006b
:103ab000906b00009371000098fd00008e430000a1
:103ac00079a6000021080000b4490000622500002a
:103ad0001ef6000040b3000040c00000515a000034
:103ae0005e260000aac70000b6e900005d100000d5
:103af0002fd60000531400004402000081e60000ad
:103b0000a1d80000c8fb0000d3e70000e6cd00000c
:103b1000e1210000d607000037c30000870d000038
:103b2000d5f40000ed1400005a45000005e900003e
:103b3000e3a90000f8a30000effc0000d902000098
:103b40006f6700008a4c00002a8d00004239000097
:103b5000faff000081f6000071870000226100007a
:103b60009d6d00000c380000e5fd000044ea0000f7
:103b7000bea40000a9cf0000de4b0000604b000097
:103b8000bbf6000070bc0000bfbe0000c67e000097
:103b90009b280000fa270000a1ea00008530000001
:103ba000efd40000051d00008804000039d000009b
:103bb000d4d90000e5990000dbe60000f87c0000a5
:103bc000a21f000065560000acc4000044220000a3
:103bd00029f4000097ff00002a430000a7230000fb
:103be00094ab000039a0000093fc0000c359000012
:103bf0005b65000092cc00000c8f00007df400009b
:103c0000efff0000d15d0000848500004f7e0000c2
:103c1000a86f0000e0e600002cfe00001443000046
:103c200001a30000a1110000084e0000827e0000e8
:103c300053f7000035f200003abd0000bbd200008f
:103c4000d72a000091d3000086eb0000212100005c
:103c5000212000004465000066610000756c0000d2
:103c600074200000696e000074650000727200002c
:103c70007570000074200000686100006e64000030
:103c80006c6500007220000021210000210d000061
:103c90000a00000021210000212000004f730000d5
:103ca000636900006c6c0000617400006f720000ba
:103cb00020460000616900006c200000696e000071
:103cc00074650000727200007570000074200000be
:103cd000686100006e6400006c65000072200000e6
:103ce00021210000210d00000a0000002121000018
:103cf0002120000041640000647200006573000030
:103d00007320000045720000726f000072200000f6
:103d1000696e00007465000072720000757000002a
:103d200074200000686100006e6400006c65000093
:103d30007220000021210000210d00000a00000077
:103d40002121000021200000537400006163000065
:103d50006b20000045720000726f000072200000ae
:103d6000696e0000746500007272000075700000da
:103d700074200000686100006e6400006c65000043
:103d80007220000021210000210d00000a00000027
:103d900021210000212000004d6100007468000016
:103da00020450000727200006f7200002069000060
:103db0006e7400006572000072750000707400007f
:103dc00020680000616e0000646c000065720000f5
:103dd00020210000212100000d0a00000000000049
:103de000484500004c4f0000204d000043480000b3
:103df000504200004f410000524400000d0a0000f4
:103e000000450000484c00004f2000004d430000da
:103e100048500000424f000041520000440d000095
:103e20000a0000004155000054480000204c0000ea
:103e30004f470000494e00000d0a0000000d000031
:103e40000a0000004d410000494c000020460000df
:103e5000524f00004d3a00003c0000003e0d0000b3
:103e60000a0000005243000050540000205400009b
:103e70004f3a00003c000000444100005441000063
:103e80000d0a000000460000726f00006d3a00004d
:103e9000200000000d0a0000546f00003a200000ce
:103ea000000d00000a430000433a0000200000001b
:103eb0000d0a000053750000626a0000656300008f
:103ec000743a0000200000000d0a00002e0d0000d2
:103ed0000a0000000d0a00002e00000051550000ed
:103ee000495400000d0a0000000000004469000071
:103ef000736300006f6e00006e6500006374000065
:103f000020660000616900006c650000642e0000fe
:103f10002044000069730000636f00006e6e0000b3
:103f200065630000742000006973000020610000d8
:103f30006c6c00006f77000065640000206f00006b
:103f40006e6c00007920000077680000656e00004c
:103f5000206d00006f640000756c0000652000009b
:103f600069730000206900006e200000636f00008c
:103f70006e6e000065630000746500006420000040
:103f80007374000061740000650d00000a000000f9
:103f90004e6f000020730000746f00007265000017
:103fa0006420000073630000616e00002072000056
:103fb00065730000756c0000747300000d0a00004a
:103fc0000000000045760000656e0000743a0000b5
:103fd000204300006f6e00006e65000063740000f7
:103fe000696f00006e2000005375000063630000dd
:103ff0006573000073660000756c00000d0a000018
:1040000000450000766500006e7400003a20000054
:10401000436f00006e6e000065630000746900006d
:104020006f6e000020520000656500007374000090
:10403000616200006c690000736800006564000044
:104040000d0a000000450000766500006e74000057
:104050003a20000053630000616e0000205200000f
:1040600065730000756c000074730000205200003e
:1040700065610000647900002c200000002500002c
:10408000640000002072000065730000756c000081
:10409000747300000d0a000000000000466c000070
:1040a000797000006f7200007420000057690000f2
:1040b0002d66000069200000636f00006e6e000036
:1040c0006563000074650000642e00002e2e000061
:1040d000686500006c6c00006f200000776f0000c6
:1040e000726c0000642100000d0a000000640000f2
:1040f0006f6e0000652100000d0a0000000a00003c
:104100005265000063650000697600006564000088
:104110002064000061740000652f000074690000d5
:104120006d65000020690000733a00002025000042
:10413000732000000d0a0000000a00004174000016
:10414000756100006c20000064610000746500006f
:104150002f740000696d0000652000006973000085
:104160003a20000025730000200d00000a00000026
:10417000466c0000797000006f720000742000002f
:104180007374000061720000746900006e670000c3
:104190002e2e00002e0000005443000050000000ae
:1041a000556e0000657800007065000063740000c3
:1041b00065640000206500006e640000206f000050
:1041c00066200000707200006f67000072610000de
:1041d0006d2e00002e2e00000d0a00000049000088
:1041e0006e69000074690000616c0000697a00006b
:1041f000696e00006720000055440000502e00004a
:104200002e2e00000d0a0000004600004c59000050
:10421000000d00000a4e00006577000020490000f4
:1042200050200000416400006472000065730000cb
:10423000733a0000200000000d0a0000000000009a
:104240002e00000000040000a30000000000000099
:10425000010200000304000005060000070800003a
:10426000090a00000b5000004943000055530000ac
:10427000004600006c790000706f0000727400004e
:104280004e65000074000000000000000000000007
:10429000000000000000000000000000000000001e
:1042a000000000000000000000000000000000000e
:1042b00000000000000000002c010000c800000009
:1042c00001000000c80000002c01000003000000f5
:1042d0003c000000640000000400000064000000d6
:1042e000c800000008000000e8030000e803000028
:1042f00008000000e8030000e803000009000000d7
:10430000e8030000e8030000111100002222000071
:104310003333000044440000555500006666000039
:10432000777700008888000099990000aaaa000009
:10433000bbbb0000cccc0000dddd0000eeee0000d9
:10434000cecd0000acab00004f6e0000004f00006f
:1043500066660000006900006e6600007261000081
:1043600000610000646800006f63000000540000fa
:104370004350000000ff0000ffff0000ffff0000af
:10438000ff000000537400006172000074690000b7
:104390006e67000020570000694600006920000099
:1043a000436f00006e6e00006563000074690000da
:1043b0006f6e00000d0a00000d0a000000000000f2
:1043c0000d0a000044480000435000002f50000038
:1043d0006f770000657200002065000076650000c0
:1043e0006e740000206f00006363000075720000af
:1043f0007265000064000000444800004350000063
:10440000206300006c690000656e000074200000ed
:10441000737500006363000065730000736600003d
:10442000756c00000d0a000000000000256400000b
:104430002e250000642e0000256400002e250000bb
:104440006425000063000000706f00006f6c0000c6
:104450002e6e0000747000002e6f00007267000066
:104460000000000031320000372e0000302e000026
:10447000302e000031000000494400004c4500008f
:104480000000000000040000a30000000000000085
:0c44900001010000010000000600000017
:020000040000fa
:10449c000200fa00004f780020b82200104078008b
:1044ac009e4f50001d00320020b8220010407800b2
:1044bc00e24f40000b00320020b822001040780080
:1044cc000080fb007e00b9008000780000402200d4
:1044dc0000804000615322000e0009003118780062
:1044ec00e001b10020b822001e487800e0cfb300f4
:1044fc009e4f1000090032001e80fb007e00b900a8
:10450c0080007800004022000080400061532200af
:10451c000e000900b0187800e001b1000080fa002c
:10452c00000006000000fa0030b82200904078002d
:10453c0020b822001040780080cf500029003200b3
:10454c0030b8220010407800e24f400018003200d2
:10455c00204d22000001780030b822001040780075
:10456c000080fb007e00b900fc00400000402200ef
:10457c00008040009042780030b822001040780053
:10458c000080fb007e00b900800078000040220013
:10459c00008040009000780080fd2f0000804000db
:1045ac008402200013c0b300854078006911070015
:1045bc0020b822009040780030b8220001487800e2
:1045cc002055220090417800b129810080fd2f00f8
:1045dc0000814000204d22008402200011c0b30055
:1045ec005c1107000080fa00000006000c00fa00c5
:1045fc00a0752100000f7800205c81000000e00015
:10460c0008003a00beb002000000000080007800f4
:10461c00f07f20008080600000402000008040007f
:10462c00205c8900a04f2200c20320008000eb0018
:10463c00140a0200000000000040eb00204f98001c
:10464c000040eb00304f98004e0037003e48900081
:10465c008fff07003e4890000080fb006600b90009
:10466c0080007800a0152a00008040009040900047
:10467c00214798003e4890000080fb006600b9007e
:10468c008080e800a0152a0000804000900078008f
:10469c00410798003e4890000080fb006600b9007e
:1046ac00e4004000a0152a00008040009000780033
:1046bc00310798002e4090000080fb000000e000c5
:1046cc00010032002e0037001e00780020079800f1
:1046dc00ce0090003e009000008040001e00400084
:1046ec00a1022000010f4000e05c23009e0f10008f
:1046fc00fdff3e0020552200ae409000014878009e
:10470c002e0090008002b000b0298900b1298100f0
:10471c004e009000008040000000e800c029890095
:10472c00c12981003e00900000804000d029890002
:10473c00d0002000602a8900702a81000030a1007e
:10474c00702a890077ff07003e4890000080fb002c
:10475c006600b90080007800a0152a000080400097
:10476c0090407800904f220001487800160b07000b
:10477c003e4890000040e800304f980001003700a0
:10478c00ffff37003e489000e64f5000afff360069
:10479c000080fa00000006001200fa0010079800d2
:1047ac00210798006247980043079800244f98000f
:1047bc000040eb00004f7800990037001e40780055
:1047cc0033ff0700602a8100ed0f500093003a0080
:1047dc0054ff0700904f2200904078002e48900024
:1047ec0080cf50008d003a0080212000b027890036
:1047fc006e4090000004e0000a003a004e00900069
:10480c0010278900702a81000030a000702a8900ce
:10481c0040002000602a89004e019000822a890005
:10482c007b003700215c8100f03f2000808f50001e
:10483c0004003600215c810080382100808f5000fc
:10484c000200360000402000205c8900205c8100c2
:10485c00102789000000e800205c89004e009000c1
:10486c00002789002e33020001000000202a890055
:10487c00312a8900702a81000040a000702a89002a
:10488c006e4090000080fb00000f98000e09900015
:10489c00e30f5100220032000e089000e30f50008d
:1048ac0004003c000e099000e10f51005800350047
:1048bc00040037000e089000e40f50003000320066
:1048cc00530037001e009000ae0090004027890076
:1048dc00512789000041eb00624f98006e40900018
:1048ec00e24f500002003a0010c0b300604f980035
:1048fc00a12781006e4990000280fb0061006000de
:10490c004201dd00b0ff2f008080600082807000cb
:10491c00a12789000000eb00602a89003c003700c9
:10492c000e80e800900090000e80e80010007800e7
:10493c00808040004e009000808040001027810055
:10494c0000806800802a89001e009000ae00900054
:10495c004027890051278900814f22000040eb003d
:10496c0080487800d00320000100200090268900a8
:10497c00a126890020002000602a8900240037002d
:10498c001e009000ae009000800078002140900046
:10499c000081fb00314090000080fb004800dd00ee
:1049ac0002007000000178001e009000ae00900024
:1049bc009080fb00104090000080fb004800dd0060
:1049cc0001007000800041004e009000808040008b
:1049dc001027810000806800802a89001e0090004a
:1049ec00ae00900080007800804e22000900090083
:1049fc0031587800a000b100a100b1005000200097
:104a0c00602a890011c0b30020c0b3000e07070054
:104a1c001e80fb0060079800060037001e4fe80060
:104a2c0062c0b3009e4f110064ff3600e00f2000ff
:104a3c00600798006e0090000080fa0000000600ed
:104a4c000400fa00004f780060c0b3009e4f1000c5
:104a5c000300360010002000100798000f003700ec
:104a6c001e4078008afe0700702a81000100210098
:104a7c00010060000000e00006003200702a810096
:104a8c0000c0a100702a89001000200010079800b7
:104a9c00020037000000eb00100798001e00900089
:104aac000080fa00000006000400fa00004f7800b5
:104abc0060c0b3009e4f1000030036008000eb0076
:104acc0011079800090037001e40780070fe07009f
:104adc00602a81008000eb0011079800e70f50005e
:104aec0002003a0010002000100798001e009000f1
:104afc000080fa00000006000400fa00004f780065
:104b0c0060c0b3009e4f10004b003e001e4078006a
:104b1c005ffe0700002a8100102a8900602a8100ac
:104b2c00100798001e009000e50f50001f00320087
:104b3c001e009000e50f50000a003e001e00900081
:104b4c00e10f5000150032001e009000e10f5000e4
:104b5c00160039001e009000e30f500032003e009a
:104b6c00120037001e009000eb0f50001e003200a8
:104b7c001e009000eb0f500004003e001e00900041
:104b8c00e70f500028003e000a0037001e0090007e
:104b9c00ee0f500021003200230037007cca0200c7
:104bac0000000000080a070023003700060a07006f
:104bbc002100370011c0b30010c1b300a2060700da
:104bcc00202781000000e00004003200e129810070
:104bdc00f0268100808f5000f6ff3a008000200004
:104bec00602a89001400370011c0b30010c1b30053
:104bfc0095060700202781000000e0000400320029
:104c0c00e1298100f0268100808f5000f6ff3a00e8
:104c1c00c0002000602a890007003700d000200067
:104c2c00602a8900040037008040eb0040c1b300cb
:104c3c0085060700e40907000080fa000000060062
:104c4c000200fa00004f780060c0b3009e4f1000c5
:104c5c0007003e001e4078000dfe0700702a810000
:104c6c000030a100702a89001e407800a2ff0700c6
:104c7c000080fa00000006000400fa00004f7800e3
:104c8c0060c0b3009e4f1000030036008000eb00a4
:104c9c00110798000b0037001e407800fcfd070040
:104cac0020fe0700403f2200814e2200090009002f
:104cbc003158780000278100f01f8900403f220006
:104ccc00100798001e0090000080fa0000000600fb
:104cdc000200fa00004f780060c0b3009e4f100035
:104cec000a003e001e407800e9fd07000dfe07009b
:104cfc00e1298100f0268100808f500003003200f2
:104d0c0011c0b30000c1b3004f0607000080fa00c9
:104d1c00000006000600fa00204798002e40900084
:104d2c00e64f5000030036000000eb00200798000f
:104d3c00200037002e409000d5fd0700602a81002e
:104d4c00004f780070c0b3009e4f10000600320078
:104d5c00b0c0b3009e4f1000030032000000eb0007
:104d6c002007980013003700e1298100f029810009
:104d7c00808f50000a003900c1298100b0298100c0
:104d8c0000815000f1298100e02981000080500051
:104d9c00000041000000e9002007980005003700e2
:104dac00f0298100e1298100010050000000e90098
:104dbc00200798002e0090000080fa0000000600ea
:104dcc000600fa0020479800314798002e409000ca
:104ddc00e64f5000030036000000eb00200798005f
:104dec00440037002e409000a9fd07002e40900093
:104dfc00c8ff0700000f78001e00e00003003a0017
:104e0c000000eb00200798003a003700100020004b
:104e1c009e0f100002003a002e409000acff0700dd
:104e2c00702a810001102000010060000000e000e9
:104e3c000b003a00c1298100b0298100008050008c
:104e4c000000d1009e0f5000050039002e4090004c
:104e5c009fff0700702a81000080a000702a890043
:104e6c006300470000017800205522009040780034
:104e7c00e02981001400200013c0b300350f070097
:104e8c00e02981000000e800e0298900e129810087
:104e9c00c0298100808f500002003900b0298100a8
:104eac00e0298900100020009e0f100003003a003a
:104ebc002e40900086ff07000c003700702a8100fe
:104ecc0001022000010060000000e00007003a0031
:104edc00702a81000050a000702a89003a33020029
:104eec000100000069004000402a890010002000e9
:104efc00200798002e0090000080fa0000000600a9
:104f0c000e00fa006047980041079800520798007d
:104f1c000000eb00000f78006e409000e64f500050
:104f2c00030036000000eb006007980062003700b9
:104f3c006e40900056fd07006e40900075ff070014
:104f4c00100798001e0090000000e00005003a00d9
:104f5c006e4090005eff07000000eb0060079800b9
:104f6c00550037001e009000200798009e0090000e
:104f7c005e009000808f5000020036005e009000b2
:104f8c0020079800702a81000110200001006000a9
:104f9c000000e0000c003a00c1298100b02981001a
:104fac00008050008000d1001e009000808f5000c7
:104fbc00050039006e40900045ff0700702a810003
:104fcc000080a000702a8900e12981002e00900049
:104fdc0080804000c0298100808f5000140039006f
:104fec00c1298100e0298100008f50004e00900003
:104ffc00000178002055220090407800e0298100c3
:10500c001e02780013c0b300d20e07009e00780079
:10501c004e00900001004000400798002e009000c8
:10502c001e00500020079800b0298100e02989005b
:10503c004e0090000001780020552200904078002e
:10504c00e02981002e02900013c0b300c10e0700ae
:10505c00e12981002e00900000804000e0298900a9
:10506c009e0090005e009000808f500003003e0078
:10507c006e40900016ff07000c003700702a81006c
:10508c0001022000010060000000e00007003a006f
:10509c00702a81000050a000702a89003a33020067
:1050ac000100000069004000402a89002e00900099
:1050bc001e004000600798006e0090000080fa000f
:1050cc00000006000400fa00004f78001107980059
:1050dc001e0090006c0a0200000000000001780025
:1050ec009e0090001e40780085ff0700800078002d
:1050fc001e009000008040000080fa0000000600b6
:10510c000800fa00404798004e409000e64f5000cf
:10511c00030036000000eb00300798000c0037004d
:10512c004e409000dafc0700c1298100b0298100b3
:10513c0000805000000fe9004e409000f5fe070083
:10514c00100798001e0090001e00100030079800f9
:10515c003e0090000080fa00000006000200fa00f9
:10516c00004f78001e4078000b0007000000e000a4
:10517c00070032001e407800c5fc0700002a8100a1
:10518c00102a890011c0b30000c1b3002e0507001e
:10519c000080fa00000006000400fa00004f7800be
:1051ac0060c0b3009e4f1000030036000000eb00ff
:1051bc0010079800140037001e407800b4fc07005c
:1051cc00012a8100102a8100808f500005003900cf
:1051dc00012a8100102a810080805000110798005c
:1051ec0009003700d1298100102a8100008150006c
:1051fc00012a8100c029810000805000000041007c
:10520c000000e800100798001e0090000080fa00d3
:10521c00000006000800fa002047980021079800bb
:10522c002e409000dcff0700000f78001e00e0000d
:10523c0003003a000000eb00300798002b00370009
:10524c002e40900092fc07002e0090000000e00021
:10525c00080032002055220090407800122a81006c
:10526c002e009000140020008141780011c0b30082
:10527c00380e0700102a81000000e800102a89006f
:10528c00112a8100d0298100808f50000200360045
:10529c00c0298100102a8900100020009e0f1000e8
:1052ac0004003a00702a810000a0a000702a890036
:1052bc000c003700702a8100010220000100600000
:1052cc000000e00007003a00702a81000050a000a6
:1052dc00702a89003a330200010000000003b0007c
:1052ec00402a890010002000300798003e009000f2
:1052fc000080fa00000006000c00fa0040479800fd
:10530c0031079800420798000000eb00000f78006e
:10531c004e409000a0ff0700100798001e00900060
:10532c000000e00003003a000000eb00500798007a
:10533c00500037004e40900055fc0700ce00900006
:10534c001e009000808f5000020036001e0090005e
:10535c0040079800112a81004e0090008080400088
:10536c00d0298100808f500018003600d12981008f
:10537c00102a810000805000000fe8003e009000d1
:10538c000000e0000c003200205522009040780014
:10539c00122a81003e0090001e02780081417800a4
:1053ac0011c0b300eb0d07009e0078003e0090008a
:1053bc0001004000300798004e0090001e00500085
:1053cc0040079800c0298100102a89003e009000f7
:1053dc000000e000080032002055220090407800c8
:1053ec00122a81003e0090004e029000814178000c
:1053fc0011c0b300d70d0700112a81004e00900098
:10540c0000804000102a89004e0090001e004000d1
:10541c00400798009e0090004e0090008080500045
:10542c004e009000808f500004003e00702a8100d6
:10543c0000a0a000702a89000c003700702a81009f
:10544c0001022000010060000000e00007003a00ab
:10545c00702a81000050a000702a89003a330200a3
:10546c00010000000003b000402a89004e009000ab
:10547c00500798005e0090000080fa0000000600c3
:10548c000800fa00404798004e409000e64f50004c
:10549c00030036000000eb00300798000b003700cb
:1054ac004e409000fafb0700d1298100c0298100f1
:1054bc00008f50004e40900037ff070010079800f7
:1054cc001e0090001e001000300798003e00900057
:1054dc000080fa00000006001000fa0060479800f7
:1054ec004107980052079800630798006e4090009f
:1054fc00e64f500003003e005e0090000000e0000c
:10550c0003003a000000eb007007980044003700dd
:10551c006e409000defb07006e4090001eff0700ff
:10552c0010079800ee0090005e0090008080400014
:10553c001e009000808f5000040036001e0090006a
:10554c00ee0090000100500050079800112a8100d5
:10555c006e0090000080400020079800d129810047
:10556c002e009000808f500007003100c12981006f
:10557c00d0298100808050002e00900000804000d7
:10558c000000e90020079800d12981002e0090002e
:10559c0000805000000fe8005e0090009e0f50004d
:1055ac0009003e0020552200904078004e009000eb
:1055bc005e029000814178002e01900011c0b30072
:1055cc00640d07001400370020552200904078002d
:1055dc004e0090001e027800814178002e01900050
:1055ec0011c0b3005b0d07005e0090009e005000e0
:1055fc002055220010417800c52981004e009000f2
:10560c001e004000010278008241780005017800fc
:10561c0011c0b3004f0d07005e009000700798009a
:10562c007e0090000080fa00000006000600fa00e0
:10563c002047980021079800ae019000120020002e
:10564c008e0078002e409000a3ff07001e407800cb
:10565c000080fb000080fa00000006004000fa0009
:10566c0020779800211f9800321f9800431f980044
:10567c00541f9800651f98002e709000e64f500044
:10568c0003003e003e1890000000e00003003a00ca
:10569c000000eb00701f9800320137002e70900054
:1056ac007bfb07002e709000bbfe0700800078008b
:1056bc004e1890000080500070079800fe0090007b
:1056cc003e189000808f5000030031008080eb006a
:1056dc00711f9800230137005e1890000000e00055
:1056ec0006003200fe0090005e189000808f500083
:1056fc00020036005e18900070079800112a810095
:10570c004e1890000080400050079800d12981006d
:10571c005e009000808f500007003100c12981008d
:10572c00d0298100808050005e00900000804000f5
:10573c000000e90050079800de009000010f98006f
:10574c00d12981005e009000008050000000e8002c
:10575c00600798004e18900050079800be189000f3
:10576c00410798002e189000300798002e189000d2
:10577c0090407800314798002e1890000000e80007
:10578c00201f98000000eb00000f78006e189000ae
:10579c000000e0000c003200be40900000c6b300d8
:1057ac0080cf500008003600be409000a0c7b30068
:1057bc0080cf500004003e003e40900001ceb3006c
:1057cc00014040003047980000c2b30020479800c9
:1057dc002e4090008080fb006e009000808f500067
:1057ec00020036006e009000204798002e4090007a
:1057fc008080fb007e009000808f500002003600fd
:10580c007e009000204798002e4090008080fb0086
:10581c0020552200104178007200470001027800e8
:10582c00824178000e09900011c0b300c90c07002a
:10583c002e4090008080fb000e089000010040007c
:10584c00000f98002e4090008080fb006e009000ae
:10585c0001005000600798006e0090000000e0000e
:10586c0004003a00c0298100000f98000080eb0072
:10587c00600798006e1890000000e0006f00320086
:10588c000040eb0040479800670037004e40900006
:10589c008080fb0072004700008040009040780040
:1058ac0000c6b30080cf5000160036004e4090006a
:1058bc008080fb0072004700008040009040780020
:1058cc00a0c7b30080cf50000e003e004e409000a9
:1058dc000081fb004e4090008080fb00720047006e
:1058ec0000804000104078008040780000ceb3006b
:1058fc0000c040008040780072004700000041006a
:10590c00014878004e4090008080fb0072004700f8
:10591c0000804000904078003e40900080cf5000c6
:10592c0024003a003e1890000000e900301f980057
:10593c003e1890000000e00009003a00de009000e4
:10594c004e009000808050004e4090000080fb0084
:10595c00008040000000e800701f980081003700b4
:10596c002e18900090407800314798002e18900027
:10597c000000e800201f980010002000000f7800a5
:10598c00be40900000c6b30080cf5000230036000c
:10599c00be409000a0c7b30080cf50001f003e0057
:1059ac003e40900001ceb3000140400030479800cb
:1059bc001a0037004e009000301f98001e00e000c7
:1059cc0016003200be009000211f98002e18900087
:1059dc0090407800314798002e1890000000e800a5
:1059ec00201f9800be40900000c6b30080cf50002e
:1059fc0008003600be409000a0c7b30080cf500016
:105a0c0004003e003e40900001ceb3000140400037
:105a1c00304798000000eb00000f78004e409000db
:105a2c000040e80040479800ce4090002e40900087
:105a3c0080cf500095ff3900380037000040eb0054
:105a4c0040479800310037004e4090008080fb00aa
:105a5c007200470000804000904078003e4090006b
:105a6c0080cf500018003a003e1890000000e9006a
:105a7c00301f98003e1890000000e00009003a002a
:105a8c00de0090004e009000808050004e40900050
